:1000000012C02CC02BC02AC029C028C027C026C0BF
:1000100025C024C023C022C021C020C01FC01EC0D4
:100020001DC01CC01BC011241FBECFE5D4E0DEBF25
:10003000CDBF10E0A0E6B0E0E4E7F5E002C0059037
:100040000D92AC3FB107D9F711E0ACEFB0E001C0C1
:100050001D92A230B107E1F702D08AC2D1CF0F932F
:100060001F93CF93DF9304EC19E0C8010197F1F7D8
:10007000B2D0C8010197F1F7F6D0A2D188E190E0A3
:100080009093FF008093FE0085E390E09093010140
:100090008093000189EF93E09093FD008093FC0032
:1000A000C9E1D0E080E060E0E7D080E690E0F9D000
:1000B00081E062E0E1D080E790E0F3D080E29EE46E
:1000C000FE013197F1F70197D9F7CDD06091FE008D
:1000D0007091FF0080E0C6D181E066E0CDD083E47E
:1000E000DCD0609100017091010189E0BBD181E019
:1000F0006FE0C2D085E2D1D080E29EE4FE0131976C
:10010000F1F70197D9F7AFD06091FC007091FD0035
:1001100080E0A8D181E06DE0AFD08CE790E0C1D065
:1001200080E29EE4FE013197F1F70197D9F79BD069
:10013000B9CF81B38F6081BB84B38F6084BB0895D6
:10014000982F85B3807F85BB892F94FDA89A85FD64
:10015000A99A86FDAA9A97FDAB9A929A81E0982F68
:100160009A95F1F792988A95F1F708951F93162FB3
:1001700092989198882319F0813021F402C09098C8
:1001800001C0909A81E08A95F1F7812FD9DF812F04
:100190008295807FD5DF1F910895A39892989098BB
:1001A000919A81E08A95F1F721E0929A822F8A95BF
:1001B000F1F783B39298922F9A95F1F7929A922F32
:1001C0009A95F1F79298922F9A95F1F783FDEDCFDA
:1001D000A39A91980895EF92FF921F9381B38F6035
:1001E00081BB84B38F6084BB88EAE82E81E6F82E59
:1001F000C7010197F1F7939A84ED90E30197F1F726
:1002000092989098919880E39BDF84EC99E0019715
:10021000F1F780E395DF82E48A95F1F780E390DFE0
:1002200011E2812F8A95F1F788E28ADFB6DF80E05C
:1002300068E29CDFB2DF80E068E098DFAEDF80E05C
:1002400061E094DFAADF80E066E090DF1A95F1F7C5
:10025000A4DF80E06CE08ADFC7010197F1F71F910E
:10026000FF90EF90089599DF80E061E07FDF95DFF8
:1002700080E062E07BDF08950F931F93082F162F15
:100280008CDF002319F0013029F4105C106880E045
:10029000612F6CDF1F910F910895682F81E066DF59
:1002A00008951F93CF93DF93EC0110E004C075DF36
:1002B0008991F3DF1F5F8881882311F01031B9F72E
:1002C000DF91CF911F9108956F927F928F929F92AD
:1002D000AF92BF92CF92DF92EF92FF920F931F9354
:1002E000DF93CF93CDB7DEB72B970FB6F894DEBF71
:1002F0000FBECDBF7B018C01611571058105910594
:1003000019F480E3CADF47C097FF0AC08DE2C5DF5A
:10031000AA24BB246501AE18BF08C00AD10A02C0D6
:100320005B016C014E010894811C911C74019BE0DF
:10033000692E712C6C0E7D1E16C0C601B5012AE017
:1003400030E040E050E0F2D0605DF70161937F0162
:10035000C601B5012AE030E040E050E0E7D0C90135
:10036000DA015C016D011E2D1819A114B104C1043C
:10037000D10459F0E614F70401F707C01150F70152
:10038000E10FF11D808189DF04C07E010894E11C2A
:10039000F11C112399F72B960FB6F894DEBF0FBE10
:1003A000CDBFCF91DF911F910F91FF90EF90DF9024
:1003B000CF90BF90AF909F908F907F906F90089557
:1003C000DF92EF92FF920F931F93CF93DF93EE2470
:1003D000FF2400E431E2D32EE0DE80E0602FC6DEB1
:1003E000E70123E0CC0FDD1F2A95E1F7C058DF4F6E
:1003F00010E0899152DF8D2D8A95F1F71F5F18303B
:10040000C1F70894E11CF11C085F003829F7DF915F
:10041000CF911F910F91FF90EF90DF900895FF9281
:100420000F931F93CF93DF93F82E86E0689FE00130
:100430001124C054DF4F00E0102F1F0D80E0612F0A
:100440001BDF88812ADF81E0612F16DF8B8125DFAA
:100450000F5F2196033081F7DF91CF911F910F91AC
:10046000FF900895CF92DF92EF92FF920F931F9328
:10047000DF93CF9300D000D0CDB7DEB7182F7B012C
:1004800019821A821B821C829B0140E06E01089433
:10049000C11CD11C0EC0F601E40FF11DC9016AE0B8
:1004A00070E030D080834F5FC9016AE070E02AD0ED
:1004B0009B012115310579F7012F0D5F84E6E816C0
:1004C000F10468F0812F6C81AADF802F6B81A7DF98
:1004D000812F8A5F6A81A3DF812F875F04C0812F0C
:1004E0006A819DDF802F69819ADF0F900F900F90B6
:1004F0000F90CF91DF911F910F91FF90EF90DF90C0
:10050000CF900895AA1BBB1B51E107C0AA1FBB1FB8
:10051000A617B70710F0A61BB70B881F991F5A958F
:10052000A9F780959095BC01CD010895A1E21A2EFE
:10053000AA1BBB1BFD010DC0AA1FBB1FEE1FFF1F87
:10054000A217B307E407F50720F0A21BB30BE40BD7
:10055000F50B661F771F881F991F1A9469F760951E
:100560007095809590959B01AC01BD01CF010895D8
:04057000F894FFCF2D
:1005740057656174686572204D6F6E69746F72009F
:1005840056657273696F6E20312E300068506100B9
:100594001C1E1E1E1E1E1E1C070F0F0F0F0F0F0703
:1005A4001F1F000000001F1F1E1C00000000181C5D
:1005B4000F070000000003070000000000001F1FD9
:1005C400000000000000070F1F1F000000000000D3
:1005D4000107000105002020002020000402000182
:1005E40005050402000605000105002020000102A3
:1005F4000306050001020301050001070020200095
:0C060400010200010500010200060500D3
:00000001FF
